{
    "contractName": "Inbox",
    "abi": [
        {
            "constant": false,
            "inputs": [
                {
                    "internalType": "string",
                    "name": "initialMessage",
                    "type": "string"
                }
            ],
            "name": "inbox",
            "outputs": [],
            "payable": false,
            "stateMutability": "nonpayable",
            "type": "function"
        },
        {
            "constant": true,
            "inputs": [],
            "name": "message",
            "outputs": [
                {
                    "internalType": "string",
                    "name": "",
                    "type": "string"
                }
            ],
            "payable": false,
            "stateMutability": "view",
            "type": "function"
        },
        {
            "constant": false,
            "inputs": [
                {
                    "internalType": "string",
                    "name": "newMessage",
                    "type": "string"
                }
            ],
            "name": "setMessage",
            "outputs": [],
            "payable": false,
            "stateMutability": "nonpayable",
            "type": "function"
        }
    ],
    "bytecode": "608060405234801561001057600080fd5b506102e0806100206000396000f3fe608060405234801561001057600080fd5b50600436106100415760003560e01c8063368b877214610046578063e21f37ce146100ee578063f0f9b1d114610046575b600080fd5b6100ec6004803603602081101561005c57600080fd5b81019060208101813564010000000081111561007757600080fd5b82018360208201111561008957600080fd5b803590602001918460018302840111640100000000831117156100ab57600080fd5b91908080601f01602080910402602001604051908101604052809392919081815260200183838082843760009201919091525092955061016b945050505050565b005b6100f6610182565b6040805160208082528351818301528351919283929083019185019080838360005b83811015610130578181015183820152602001610118565b50505050905090810190601f16801561015d5780820380516001836020036101000a031916815260200191505b509250505060405180910390f35b805161017e906000906020840190610210565b5050565b6000805460408051602060026001851615610100026000190190941693909304601f810184900484028201840190925281815292918301828280156102085780601f106101dd57610100808354040283529160200191610208565b820191906000526020600020905b8154815290600101906020018083116101eb57829003601f168201915b505050505081565b828054600181600116156101000203166002900490600052602060002090601f016020900481019282601f1061025157805160ff191683800117855561027e565b8280016001018555821561027e579182015b8281111561027e578251825591602001919060010190610263565b5061028a92915061028e565b5090565b6102a891905b8082111561028a5760008155600101610294565b9056fea265627a7a7231582021fdfbe1742e493b17bb6072d506bd07e596d46804fbea9831caf71d0328b39e64736f6c634300050e0032",
    "sourcePath": "/home/rocky/Inbox/contracts/inbox.sol",
    "compiler": {
        "name": "solc",
        "version": "0.5.14+commit.01f1aaa4"
    },
    "functionHashes": {
        "inbox(string)": "f0f9b1d1",
        "message()": "e21f37ce",
        "setMessage(string)": "368b8772"
    },
    "gasEstimates": {
        "creation": {
            "codeDepositCost": "147200",
            "executionCost": "190",
            "totalCost": "147390"
        },
        "external": {
            "inbox(string)": "infinite",
            "message()": "infinite",
            "setMessage(string)": "infinite"
        }
    }
}